{
	"_format": "hh-sol-artifact-1",
	"contractName": "FontPayments",
	"sourceName": "contracts/FontPayment.sol",
	"abi": [
		{
			"anonymous": false,
			"inputs": [
				{
					"indexed": false,
					"internalType": "uint256",
					"name": "id",
					"type": "uint256"
				},
				{
					"indexed": false,
					"internalType": "string",
					"name": "ipfsHash",
					"type": "string"
				},
				{
					"indexed": false,
					"internalType": "string",
					"name": "name",
					"type": "string"
				},
				{
					"indexed": false,
					"internalType": "uint256",
					"name": "price",
					"type": "uint256"
				},
				{
					"indexed": false,
					"internalType": "address payable",
					"name": "creator",
					"type": "address"
				}
			],
			"name": "FontCreated",
			"type": "event"
		},
		{
			"anonymous": false,
			"inputs": [
				{
					"indexed": false,
					"internalType": "uint256",
					"name": "amount",
					"type": "uint256"
				},
				{
					"indexed": false,
					"internalType": "uint256",
					"name": "when",
					"type": "uint256"
				}
			],
			"name": "Paid",
			"type": "event"
		},
		{
			"inputs": [
				{
					"internalType": "string",
					"name": "_ipfsHash",
					"type": "string"
				},
				{
					"internalType": "string",
					"name": "_name",
					"type": "string"
				},
				{
					"internalType": "uint256",
					"name": "_price",
					"type": "uint256"
				},
				{
					"internalType": "address payable",
					"name": "_creator",
					"type": "address"
				}
			],
			"name": "addFont",
			"outputs": [],
			"stateMutability": "nonpayable",
			"type": "function"
		},
		{
			"inputs": [
				{
					"internalType": "address",
					"name": "",
					"type": "address"
				}
			],
			"name": "buyers",
			"outputs": [
				{
					"internalType": "uint256",
					"name": "amountPaid",
					"type": "uint256"
				},
				{
					"internalType": "uint256",
					"name": "lastPurchase",
					"type": "uint256"
				},
				{
					"internalType": "string",
					"name": "ipfsHash",
					"type": "string"
				}
			],
			"stateMutability": "view",
			"type": "function"
		},
		{
			"inputs": [],
			"name": "fontCount",
			"outputs": [
				{
					"internalType": "uint256",
					"name": "",
					"type": "uint256"
				}
			],
			"stateMutability": "view",
			"type": "function"
		},
		{
			"inputs": [
				{
					"internalType": "string",
					"name": "",
					"type": "string"
				}
			],
			"name": "fonts",
			"outputs": [
				{
					"internalType": "uint256",
					"name": "id",
					"type": "uint256"
				},
				{
					"internalType": "string",
					"name": "name",
					"type": "string"
				},
				{
					"internalType": "uint256",
					"name": "price",
					"type": "uint256"
				},
				{
					"internalType": "address payable",
					"name": "creator",
					"type": "address"
				}
			],
			"stateMutability": "view",
			"type": "function"
		},
		{
			"inputs": [],
			"name": "minPayment",
			"outputs": [
				{
					"internalType": "uint256",
					"name": "",
					"type": "uint256"
				}
			],
			"stateMutability": "view",
			"type": "function"
		},
		{
			"inputs": [
				{
					"internalType": "string",
					"name": "_ipfsHash",
					"type": "string"
				}
			],
			"name": "payment",
			"outputs": [],
			"stateMutability": "payable",
			"type": "function"
		}
	],
	"bytecode": "0x608060405267016345785d8a0000600055600060015534801561002157600080fd5b50610a2c806100316000396000f3fe6080604052600436106100555760003560e01c80632e2764991461005a5780633882e9801461008357806397a993aa146100b3578063af6fd4a7146100e2578063c8b0c146146100f7578063d8a3024314610117575b600080fd5b34801561006657600080fd5b5061007060005481565b6040519081526020015b60405180910390f35b34801561008f57600080fd5b506100a361009e366004610771565b61012d565b60405161007a949392919061080a565b3480156100bf57600080fd5b506100d36100ce36600461085c565b6101f3565b60405161007a93929190610880565b6100f56100f0366004610771565b6102a0565b005b34801561010357600080fd5b506100f56101123660046108a8565b61050f565b34801561012357600080fd5b5061007060015481565b80516020818301810180516003825292820191909301209152805460018201805491929161015a90610928565b80601f016020809104026020016040519081016040528092919081815260200182805461018690610928565b80156101d35780601f106101a8576101008083540402835291602001916101d3565b820191906000526020600020905b8154815290600101906020018083116101b657829003601f168201915b5050505060028301546003909301549192916001600160a01b0316905084565b60026020819052600091825260409091208054600182015492820180549193929161021d90610928565b80601f016020809104026020016040519081016040528092919081815260200182805461024990610928565b80156102965780601f1061026b57610100808354040283529160200191610296565b820191906000526020600020905b81548152906001019060200180831161027957829003601f168201915b5050505050905083565b60005434116103065760405162461bcd60e51b815260206004820152602760248201527f5061796d656e74206e6565647320746f206265206d6f7265207468616e20302e60448201526631204d6174696360c81b60648201526084015b60405180910390fd5b60006003826040516103189190610963565b90815260200160405180910390206040518060800160405290816000820154815260200160018201805461034b90610928565b80601f016020809104026020016040519081016040528092919081815260200182805461037790610928565b80156103c45780601f10610399576101008083540402835291602001916103c4565b820191906000526020600020905b8154815290600101906020018083116103a757829003601f168201915b5050509183525050600282015460208201526003909101546001600160a01b039081166040928301526060830151915192935060009291169034908381818185875af1925050503d8060008114610437576040519150601f19603f3d011682016040523d82523d6000602084013e61043c565b606091505b50509050806104825760405162461bcd60e51b815260206004820152601260248201527173656e64206574686572206661696c75726560701b60448201526064016102fd565b6040805160608101825234815242602080830191825282840187815233600090815260028084529590208451815592516001840155518051939492936104cf938501929190910190610635565b5050604080513481524260208201527fef53713ee4f072f79f4d516084e3f4d15f2cde709d2091235b37ae719c272dd692500160405180910390a1505050565b600084511161051d57600080fd5b600083511161052b57600080fd5b3361053557600080fd5b600180549060006105458361097f565b919050555060405180608001604052806001548152602001848152602001838152602001826001600160a01b03168152506003856040516105869190610963565b90815260200160405180910390206000820151816000015560208201518160010190805190602001906105ba929190610635565b506040828101516002830155606090920151600390910180546001600160a01b0319166001600160a01b0390921691909117905560015490517fd121be9180f1b7f4237a97968f2b751c4ade465223de5ce842a49da17d86dbcf91610627918790879060009087906109a8565b60405180910390a150505050565b82805461064190610928565b90600052602060002090601f01602090048101928261066357600085556106a9565b82601f1061067c57805160ff19168380011785556106a9565b828001600101855582156106a9579182015b828111156106a957825182559160200191906001019061068e565b506106b59291506106b9565b5090565b5b808211156106b557600081556001016106ba565b634e487b7160e01b600052604160045260246000fd5b600082601f8301126106f557600080fd5b813567ffffffffffffffff80821115610710576107106106ce565b604051601f8301601f19908116603f01168101908282118183101715610738576107386106ce565b8160405283815286602085880101111561075157600080fd5b836020870160208301376000602085830101528094505050505092915050565b60006020828403121561078357600080fd5b813567ffffffffffffffff81111561079a57600080fd5b6107a6848285016106e4565b949350505050565b60005b838110156107c95781810151838201526020016107b1565b838111156107d8576000848401525b50505050565b600081518084526107f68160208601602086016107ae565b601f01601f19169290920160200192915050565b84815260806020820152600061082360808301866107de565b6040830194909452506001600160a01b039190911660609091015292915050565b6001600160a01b038116811461085957600080fd5b50565b60006020828403121561086e57600080fd5b813561087981610844565b9392505050565b83815282602082015260606040820152600061089f60608301846107de565b95945050505050565b600080600080608085870312156108be57600080fd5b843567ffffffffffffffff808211156108d657600080fd5b6108e2888389016106e4565b955060208701359150808211156108f857600080fd5b50610905878288016106e4565b93505060408501359150606085013561091d81610844565b939692955090935050565b600181811c9082168061093c57607f821691505b6020821081141561095d57634e487b7160e01b600052602260045260246000fd5b50919050565b600082516109758184602087016107ae565b9190910192915050565b60006000198214156109a157634e487b7160e01b600052601160045260246000fd5b5060010190565b85815260a0602082015260006109c160a08301876107de565b82810360408401526109d381876107de565b606084019590955250506001600160a01b0391909116608090910152939250505056fea2646970667358221220fb63d7bdb73fa62323134f66e099f48d97dfd4f77cc5d3dc88046b35a271b0d764736f6c63430008090033",
	"linkReferences": {},
	"deployedLinkReferences": {}
}